S00F00004175746F4361722E7372656366
S113000071C000008EC000008CC000008AC00000D7
S113001088C0000086C0000084C0000082C00000C8
S113002080C000005CC100007CC000007AC00000F9
S113003078C0000076C0000074C0000072C00000E8
S113004070C000006EC000006CC000006AC00000F8
S113005068C000003CC2000064C0000062C0000030
S113006060C000005EC000005CC000005AC0000018
S113007058C0000056C0000054C0000052C0000028
S113008050C000004EC000004CC000004AC0000038
S113009048C0000046C0000044C0000042C0000048
S11300A040C000003EC000003CC000003AC0000058
S11300B038C0000036C0000034C0000032C0000068
S11300C030C000002EC000002CC000002AC0000078
S11300D028C0000026C0000024C0000022C0000088
S11300E020C0000011241FBECFEFD1E2DEBFCDBF80
S11300F000E00CBF12E0A0E0B2E0ECEDF5E000E0BF
S11301000BBF02C007900D92A031B107D9F72AE0C6
S1130110A0E1B2E001C01D92AD34B207E1F786D090
S11301205BC26ECF2F923F924F925F926F927F92FB
S11301308F929F92AF92BF92CF92DF92EF92FF92F3
S11301400F931F93CF93DF932091180230914C0AA1
S1130150F894EDB6FEB67894EAE1F2E0220FC0E03E
S1130160D2E0C20FD11D1991D881C12F18811A3A3A
S113017021F080911802912DF6C1220FE20FF11D9A
S1130180E192F08220914B0A3091190240913A0297
S1130190232B242B3091180240914C0A68E0889458
S11301A033953770441F411D742F422319F06A950B
S11301B0B9F7E8CF3093180270934C0AEAE1F2E001
S11301C0330F330FE30FF11D21913081F8942DBFCC
S11301D03EBF7894DF91CF911F910F91FF90EF90E4
S11301E0DF90CF90BF90AF909F908F907F906F9053
S11301F05F90852D4F90942D3F90632D2F90722DFD
S11302000895EEE0F2E0E80FF11D849108950102F3
S11302100408102040808CD0892B09F01CD085E084
S113022090E03FD1F8CF82D022C00895FCDFC2D045
S113023041E06BE071E081E07FD008D08FEF43D0E4
S11302408FEF47D084E690E02CD1FCCF409A4198C0
S11302504298439A089588B1807F88B91092A90082
S11302601092A80010929900109298000895E1E06D
S1130270F1E08081886080836B9A87B18F7087B941
S1130280E0EAF0E0808181688083A1EAB0E08C91AB
S113029088608C93E0E9F0E0808181688083E1E903
S11302A0F0E08081886080838C9181608C93808170
S11302B0816080831092A9001092A8001092990086
S11302C010929800089590E09093A9008093A8005C
S11302D0089590E0909399008093980008951F9258
S11302E00F920FB60F9211242F933F938F939F93E6
S11302F08091840090918500189B05C09093110211
S1130300809310020AC02091100230911102821BC6
S1130310930B90931302809312029F918F913F91BC
S11303202F910F900FBE0F901F90189510BA08953B
S11303308FB1817090E00895CF93DF93C82FD42FAD
S1130340E82FF0E0EE0FFF1FEE0FFF1F9F01265E68
S11303503D4FF901A281B3816C93CD010197FC015A
S113036070830197FC0110825597F901B183A08332
S11303708C2F47DFDD2341F0982F909580914B0A15
S1130380982390934B0A05C090914B0A982B909315
S11303904B0A80911802C81301C0F4DEDF91CF919B
S11303A0089582E084BD9AEF97BD80936E0083E048
S11303B085BD0895CF93DF93F8948EEF80934B0A15
S11303C010923A02109219021092180281E080935E
S11303D04C0ACAE1D2E08AE393E0998388839B8341
S11303E08A838AE394E09D838C839F838E838AE34C
S11303F095E0998788879B878A878AE396E09D871B
S11304008C879F878E878AE397E0998B888B9B8B59
S11304108A8B8AE398E09D8B8C8B9F8B8E8B8AE3EF
S113042099E0998F888F9B8F8A8F8AE39AE09D8FBA
S11304308C8F9F8F8E8F8AEA80933B0280933B033D
S113044080933B0480933B0580933B0680933B075A
S113045080933B0880933B09A4DFEDB7FEB7A881E6
S1130460B98185818C93A881B981848111978C93FA
S1130470A881B981838112978C93A881B9818281E3
S113048013978C93888199812181FC01349720836F
S11304908881998105979EBF8DBF7894DF91CF9114
S11304A008959C019FB7F894E0911802F0E0EE0FD4
S11304B0FF1FE55CF54F3183208320911902809161
S11304C04C0A822B809319029FBF2CCE08951F9251
S11304D00F920FB60F9211240BB60F922F933F93E6
S11304E04F935F938F939F93AF93BF93EF93FF9338
S11304F08091140290911502A0911602B0911702F6
S11305000196A11DB11D8093140290931502A0932E
S11305101602B093170230911902EBE3FAE04BE4B0
S11305205AE021E080819181019781939193892BF5
S113053019F4822F80953823220FE417F50791F7D9
S113054030931902FF91EF91BF91AF919F918F91D9
S11305505F914F913F912F910F900BBE0F900FBE63
S11305600F901F901895AC01279A2F982FEF31EE1A
S113057074E0215030407040E1F700C0000060E0BA
S113058080E05523FCF0262F382F95B1905895B96B
S11305909FEFE0E772E09150E0407040E1F700C067
S11305A0000095B1905895B99FEFE9E678E1915034
S11305B0E0407040E1F700C000002F5F3F4F42175A
S11305C053071CF79FEFE3E224EF9150E0402040F3
S10F05D0E1F700C00000D5CFF894FFCF85
S11305DC3B023B033B043B053B063B073B083B0907
S9030000FC
