S00F00004175746F4361722E7372656366
S113000071C000008EC00000FDC1000012C20000DB
S113001088C0000086C0000084C0000082C00000C8
S113002080C000001DC200007CC000007AC0000037
S113003078C0000076C0000074C0000072C00000E8
S113004070C000006EC000006CC000006AC00000F8
S113005068C00000FFC2000064C0000062C000006D
S113006060C000005EC000005CC000005AC0000018
S113007058C0000056C0000054C0000052C0000028
S113008050C000004EC000004CC000004AC0000038
S113009048C0000046C0000044C0000042C0000048
S11300A040C000003EC000003CC000003AC0000058
S11300B038C0000036C0000034C0000032C0000068
S11300C030C000002EC000002CC000002AC0000078
S11300D028C0000026C0000024C0000022C0000088
S11300E020C0000011241FBECFEFD1E2DEBFCDBF80
S11300F000E00CBF12E0A0E0B2E0E2E6F7E000E0CE
S11301000BBF02C007900D92A031B107D9F72AE0C6
S1130110A0E1B2E001C01D92A135B207E1F787D09A
S11301201EC36ECF2F923F924F925F926F927F9237
S11301308F929F92AF92BF92CF92DF92EF92FF92F3
S11301400F931F93CF93DF9320911C023091500A99
S1130150F894EDB6FEB67894EEE1F2E0220FC0E03A
S1130160D2E0C20FD11D1991D881C12F18811A3A3A
S113017021F080911C02912DB9C2220FE20FF11DD2
S1130180E192F08220914F0A30911D0240913E028B
S1130190232B242B30911C024091500A68E0889450
S11301A033953770441F411D742F422319F06A950B
S11301B0B9F7E8CF30931C027093500AEEE1F2E0F5
S11301C0330F330FE30FF11D21913081F8942DBFCC
S11301D03EBF7894DF91CF911F910F91FF90EF90E4
S11301E0DF90CF90BF90AF909F908F907F906F9053
S11301F05F90852D4F90942D3F90632D2F90722DFD
S11302000895EEE0F2E0E80FF11D849108950102F3
S11302100408102040804DD1892B09F080D085E05E
S113022090E002D2F8CF43D186D0BDC00895FBDF61
S113023084D141E06BE071E081E041D140E060E8CD
S113024084E690E009D088E893E1EED141E060E8EB
S113025084E690E001D0F2CFEF92FF920F931F93C8
S1130260CF93DF9300D01F92CDB7DEB7E62EF42EE6
S11302701A8219821C821B82BCD08C0181E0F81284
S113028002C048D001C041D09CD08E2D80D08E2D8C
S113029084D0FE2C24C0BE016D5F7F4FCE01019639
S11302A099D02B813C8189819A818217930750F4DC
S11302B0FF2021F0FA948F2D6AD011C0E3948E2D83
S11302C06CD00DC02817390750F48FEFF81621F0C1
S11302D0F3948F2D5CD003C0EA948E2D5ED0898177
S11302E09A818017910728F48B819C81801791074C
S11302F090F215D00F900F900F900F90DF91CF9147
S11303001F910F91FF90EF900895409A4198429861
S1130310439A08954098419A429A4398089588B11F
S1130320807F88B91092A9001092A80010929900B9
S1130330109298000895E1E0F1E080818860808364
S11303406B9A87B18F7087B9E0EAF0E080818168A9
S11303508083A1EAB0E08C9188608C93E0E9F0E0BE
S1130360808181688083E1E9F0E080818860808316
S11303708C9181608C938081816080831092A9002C
S11303801092A8001092990010929800089590E09D
S11303909093A9008093A800089590E09093990009
S11303A0809398000895F8948AB1897F8AB9E9E620
S11303B0F0E08081886280838DB386608DBB789401
S11303C008951092130210921202109211021092C8
S11303D0100208952091120230911302FC0131831E
S11303E020838091100290911102FB0191838083FC
S11303F00895803D910528F08F5C9109803D910519
S1130400D8F708951F920F920FB60F9211248F936D
S11304109F9380911202909113020196909313027C
S1130420809312029F918F910F900FBE0F901F9097
S113043018951F920F920FB60F9211248F939F93CA
S11304408091100290911102019690931102809371
S113045010029F918F910F900FBE0F901F901895CF
S11304601F920F920FB60F9211242F933F938F93E5
S11304709F938091840090918500189B05C0909370
S11304801502809314020AC02091140230911502BF
S1130490821B930B90931702809316029F918F9166
S11304A03F912F910F900FBE0F901F90189510BA87
S11304B008959FB181E08927817090E00895CF93DA
S11304C0DF93C82FD42FE82FF0E0EE0FFF1FEE0FBD
S11304D0FF1F9F01225E3D4FF901A281B3816C93FE
S11304E0CD010197FC0170830197FC01108255979F
S11304F0F901B183A0838C2F84DEDD2341F0982F92
S1130500909580914F0A982390934F0A05C090913B
S11305104F0A982B90934F0A80911C02C81301C074
S113052031DEDF91CF91089582E084BD9AEF97BDCB
S113053080936E0083E085BD0895CF93DF93F89494
S11305408EEF80934F0A10923E0210921D02109279
S11305501C0281E08093500ACEE1D2E08EE393E066
S1130560998388839B838A838EE394E09D838C8321
S11305709F838E838EE395E0998788879B878A87FC
S11305808EE396E09D878C879F878E878EE397E026
S1130590998B888B9B8B8A8B8EE398E09D8B8C8BBD
S11305A09F8B8E8B8EE399E0998F888F9B8F8A8F98
S11305B08EE39AE09D8F8C8F9F8F8E8F8AEA809333
S11305C03F0280933F0380933F0480933F058093D1
S11305D03F0680933F0780933F0880933F09A4DF41
S11305E0EDB7FEB7A881B98185818C93A881B981C3
S11305F0848111978C93A881B981838112978C93FC
S1130600A881B981828113978C93888199812181F2
S1130610FC01349720838881998105979EBF8DBF03
S11306207894DF91CF9108959C019FB7F894E0915D
S11306301C02F0E0EE0FFF1FE15CF54F31832083D5
S113064020911D028091500A822B80931D029FBF2E
S113065069CD08951F920F920FB60F9211240BB615
S11306600F922F933F934F935F938F939F93AF93E7
S1130670BF93EF93FF938091180290911902A09178
S11306801A02B0911B020196A11DB11D809318029C
S113069090931902A0931A02B0931B0230911D0289
S11306A0EFE3FAE04FE45AE021E080819181019781
S11306B081939193892B19F4822F80953823220FEB
S11306C0E417F50791F730931D02FF91EF91BF9165
S11306D0AF919F918F915F914F913F912F910F9087
S11306E00BBE0F900FBE0F901F901895AC01279A68
S11306F02F982FEF31EE74E0215030407040E1F735
S113070000C0000060E080E05523FCF0262F382F65
S113071095B1905895B99FEFE0E772E09150E040B1
S11307207040E1F700C0000095B1905895B99FEF73
S1130730E9E678E19150E0407040E1F700C0000044
S11307402F5F3F4F421753071CF79FEFE3E224EF5D
S11307509150E0402040E1F700C00000D5CFF8946C
S1050760FFCFC5
S11307623F023F033F043F053F063F073F083F095F
S9030000FC
