S00F00004175746F4361722E7372656366
S113000071C000008EC000008CC000008AC00000D7
S113001088C0000086C0000084C0000082C00000C8
S113002080C000000DC20000B3C100007AC000000F
S113003078C0000076C0000074C0000072C00000E8
S113004070C000006EC000006CC000006AC00000F8
S113005068C00000FAC2000064C0000062C0000072
S113006060C000005EC000005CC000005AC0000018
S113007058C0000056C0000054C0000052C0000028
S113008050C000004EC000004CC000004AC0000038
S113009048C0000046C0000044C0000042C0000048
S11300A040C000003EC000003CC000003AC0000058
S11300B038C0000036C0000034C0000032C0000068
S11300C030C000002EC000002CC000002AC0000078
S11300D028C0000026C0000024C0000022C0000088
S11300E020C0000011241FBECFEFD1E2DEBFCDBF80
S11300F000E00CBF12E0A0E0B2E0E8E5F7E000E0C9
S11301000BBF02C007900D92A031B107D9F72AE0C6
S1130110A0E1B2E001C01D92A335B207E1F7A6D079
S113012019C36ECF2F923F924F925F926F927F923C
S11301308F929F92AF92BF92CF92DF92EF92FF92F3
S11301400F931F93CF93DF9320911E023091520A95
S1130150F894EDB6FEB67894E0E2F2E0220FC0E047
S1130160D2E0C20FD11D1991D881C12F18811A3A3A
S113017021F080911E02912DB4C2220FE20FF11DD5
S1130180E192F0822091510A30911F024091400285
S1130190232B242B30911E024091520A68E088944C
S11301A033953770441F411D742F422319F06A950B
S11301B0B9F7E8CF30931E027093520AE0E2F2E0FE
S11301C0330F330FE30FF11D21913081F8942DBFCC
S11301D03EBF7894DF91CF911F910F91FF90EF90E4
S11301E0DF90CF90BF90AF909F908F907F906F9053
S11301F05F90852D4F90942D3F90632D2F90722DFD
S11302000895EEE0F2E0E80FF11D849108950102F3
S11302100408102040808130910529F488E090E0A2
S113022030D051C00895029721F488EF9FEF29D070
S11302304AC008952ED1019729F454D081E090E06A
S1130240EADF0BC026D1029729F44CD082E090E07B
S1130250E2DF03C038D080EB3BD081E090E0DFD117
S1130260E9CF15D14BD0D8D081C00895FADF60D141
S113027041E06AE171E081E01DD182E390E0CFD1F9
S1130280FCCFCF93DF93EC01992334F4D195C1953E
S1130290D10960D068D005C01816190614F460D0CE
S11302A05CD080EB15D0CE01880F991FCC0FDD1FD9
S11302B0CC0FDD1FCC0FDD1F8C0F9D1FB0D112D0D2
S11302C0DF91CF910895409A41984298439A0895B6
S11302D090E09093A9008093A80090939900809354
S11302E09800089588B1807F88B91092A90010926F
S11302F0A80010929900109298000895E1E0F1E0AE
S11303008081886080836B9A87B18F7087B9E0EAB7
S1130310F0E0808181688083A1EAB0E08C918860FC
S11303208C93E0E9F0E0808181688083E1E9F0E08A
S11303308081886080838C9181608C9380818160CE
S113034080831092A9001092A80010929900109234
S113035098000895409A419808954298439A0895C0
S11303604098419A0895429A43980895F894E4E095
S1130370F1E080818C7F8083E8E6F0E08081826018
S11303808083ECE6F0E08081866080837894089531
S11303901F920F920FB60F9211240BB60F922F9348
S11303A03F938F939F93EF93FF93E3E0F1E090816A
S11303B091708081827020911102222361F0911149
S11303C00AC020911402309115022F5F3F4F3093E1
S11303D015022093140220911002222361F081114E
S11303E00AC020911202309113022F5F3F4F3093C5
S11303F01302209312029093110280931002FF9132
S1130400EF919F918F913F912F910F900BBE0F9081
S11304100FBE0F901F901895F8942098219A10926F
S1130420800083E080938100E8E6F0E080818160D1
S11304308083EBE6F0E08081816080837894089586
S11304401F920F920FB60F9211242F933F938F9305
S11304509F938091840090918500189B05C0909390
S11304601702809316020AC02091160230911702D7
S1130470821B930B90931902809318029F918F9182
S11304803F912F910F900FBE0F901F90189510BAA7
S113049008958FB18370813039F08FB183708230C9
S11304A031F080E090E0089581E090E0089582E0EA
S11304B090E00895CF93DF93C82FD42FE82FF0E076
S11304C0EE0FFF1FEE0FFF1F9F01205E3D4FF9014E
S11304D0A281B3816C93CD010197FC0170830197D4
S11304E0FC0110825597F901B183A0838C2F89DE1A
S11304F0DD2341F0982F90958091510A9823909391
S1130500510A05C09091510A982B9093510A8091F9
S11305101E02C81301C036DEDF91CF91089582E038
S113052084BD9AEF97BD80936E0083E085BD0895E6
S1130530CF93DF93F8948EEF8093510A1092400288
S113054010921F0210921E0281E08093520AC0E2B0
S1130550D2E080E493E0998388839B838A8380E458
S113056094E09D838C839F838E8380E495E09987B8
S113057088879B878A8780E496E09D878C879F87FE
S11305808E8780E497E0998B888B9B8B8A8B80E4A1
S113059098E09D8B8C8B9F8B8E8B80E499E0998F58
S11305A0888F9B8F8A8F80E49AE09D8F8C8F9F8F9A
S11305B08E8F8AEA809341028093410380934104A1
S11305C080934105809341068093410780934108BD
S11305D080934109A4DFEDB7FEB7A881B981858175
S11305E08C93A881B981848111978C93A881B98156
S11305F0838112978C93A881B981828113978C93FC
S1130600888199812181FC01349720838881998193
S113061005979EBF8DBF7894DF91CF9108959C017B
S11306209FB7F894E0911E02F0E0EE0FFF1FEF5B1E
S1130630F54F3183208320911F028091520A822B2F
S113064080931F029FBF6ECD08951F920F920FB625
S11306500F9211240BB60F922F933F934F935F93F6
S11306608F939F93AF93BF93EF93FF9380911A025D
S113067090911B02A0911C02B0911D020196A11D34
S1130680B11D80931A0290931B02A0931C02B09395
S11306901D0230911F02E1E4FAE041E55AE021E055
S11306A080819181019781939193892B19F4822FF1
S11306B080953823220FE417F50791F730931F0232
S11306C0FF91EF91BF91AF919F918F915F914F9166
S11306D03F912F910F900BBE0F900FBE0F901F9064
S11306E01895AC01279A2F982FEF31EE74E0215022
S11306F030407040E1F700C0000060E080E0552326
S1130700FCF0262F382F95B1905895B99FEFE0E76C
S113071072E09150E0407040E1F700C0000095B1F4
S1130720905895B99FEFE9E678E19150E040704028
S1130730E1F700C000002F5F3F4F421753071CF73B
S11307409FEFE3E224EF9150E0402040E1F700C046
S10B07500000D5CFF894FFCF9F
S11307584102410341044105410641074108410959
S9030000FC
