S00F00004175746F4361722E7372656366
S113000071C000008EC000008CC000008AC00000D7
S113001088C0000086C0000084C0000082C00000C8
S113002080C00000DAC000007CC000007AC000007C
S113003078C0000076C0000074C0000072C00000E8
S113004070C000006EC000006CC000006AC00000F8
S113005068C00000EFC0000064C0000062C000007F
S113006060C000005EC000005CC000005AC0000018
S113007058C0000056C0000054C0000052C0000028
S113008050C000004EC000004CC000004AC0000038
S113009048C0000046C0000044C0000042C0000048
S11300A040C000003EC000003CC000003AC0000058
S11300B038C0000036C0000034C0000032C0000068
S11300C030C000002EC000002CC000002AC0000078
S11300D028C0000026C0000024C0000022C0000088
S11300E020C0000011241FBECFEFD1E2DEBFCDBF80
S11300F000E00CBF12E0A0E0B2E0E0EDF2E000E0CE
S11301000BBF02C007900D92A030B107D9F72AE0C7
S1130110A0E0B2E001C01D92AF33B207E1F705D011
S1130120D5C06ECF81D02DC00895FCDF14D080E8F7
S113013084B9FFCF409A41984298439A089588B170
S1130140807F88B91092A9001092A800109299009B
S1130150109298000895EEDF8FEF90E09093A9003D
S11301608093A80090939900809398002FEF83E2E6
S113017094EF215080409040E1F700C00000DFCFB1
S11301800895E1E0F1E08081886080836B9A87B113
S11301908F7087B9E0EAF0E0808181688083A1EA0A
S11301A0B0E08C9188608C93E0E9F0E08081816814
S11301B08083E1E9F0E08081886080838C918160B4
S11301C08C938081816080831092A9001092A80092
S11301D0109299001092980008951F920F920FB6F2
S11301E00F9211242F933F938F939F9380918400B8
S11301F090918500189B05C09093010280930002A2
S11302000AC02091000230910102821B930B90934B
S11302100302809302029F918F913F912F910F903F
S11302200FBE0F901F9018959093090280930802B7
S113023010BA08951F920F920FB60F9211240BB6A5
S11302400F922F933F934F935F938F939F93AF930B
S1130250BF93EF93FF938091040290910502A091C4
S11302600602B09107020196A11DB11D80930402FC
S113027090930502A0930602B093070230910B02FB
S1130280EDE2FAE04DE35AE021E0808191810197AB
S113029081939193892B19F4822F80953823220F0F
S11302A0E417F50791F730930B02FF91EF91BF919B
S11302B0AF919F918F915F914F913F912F910F90AB
S11302C00BBE0F900FBE0F901F901895F894FFCFA0
S9030000FC
